{
  "contractName": "Election",
  "abi": [
    {
      "inputs": [],
      "stateMutability": "nonpayable",
      "type": "constructor"
    },
    {
      "anonymous": false,
      "inputs": [
        {
          "indexed": false,
          "internalType": "string",
          "name": "mine",
          "type": "string"
        },
        {
          "indexed": true,
          "internalType": "uint256",
          "name": "_candidateId",
          "type": "uint256"
        }
      ],
      "name": "votedEvent",
      "type": "event"
    },
    {
      "inputs": [
        {
          "internalType": "uint256",
          "name": "",
          "type": "uint256"
        }
      ],
      "name": "candidates",
      "outputs": [
        {
          "internalType": "uint256",
          "name": "id",
          "type": "uint256"
        },
        {
          "internalType": "string",
          "name": "name",
          "type": "string"
        },
        {
          "internalType": "uint256",
          "name": "voteCount",
          "type": "uint256"
        }
      ],
      "stateMutability": "view",
      "type": "function"
    },
    {
      "inputs": [],
      "name": "candidatesCount",
      "outputs": [
        {
          "internalType": "uint256",
          "name": "",
          "type": "uint256"
        }
      ],
      "stateMutability": "view",
      "type": "function"
    },
    {
      "inputs": [],
      "name": "owner",
      "outputs": [
        {
          "internalType": "address",
          "name": "",
          "type": "address"
        }
      ],
      "stateMutability": "view",
      "type": "function"
    },
    {
      "inputs": [
        {
          "internalType": "address",
          "name": "",
          "type": "address"
        }
      ],
      "name": "voters",
      "outputs": [
        {
          "internalType": "bool",
          "name": "",
          "type": "bool"
        }
      ],
      "stateMutability": "view",
      "type": "function"
    },
    {
      "inputs": [
        {
          "internalType": "string",
          "name": "_name",
          "type": "string"
        }
      ],
      "name": "addCandidate",
      "outputs": [],
      "stateMutability": "nonpayable",
      "type": "function"
    },
    {
      "inputs": [
        {
          "internalType": "uint256",
          "name": "_candidateId",
          "type": "uint256"
        }
      ],
      "name": "vote",
      "outputs": [],
      "stateMutability": "nonpayable",
      "type": "function"
    },
    {
      "inputs": [],
      "name": "winner",
      "outputs": [
        {
          "internalType": "string",
          "name": "winnerNameString",
          "type": "string"
        }
      ],
      "stateMutability": "view",
      "type": "function"
    }
  ],
  "bytecode": "0x6080604052336000806101000a81548173ffffffffffffffffffffffffffffffffffffffff021916908373ffffffffffffffffffffffffffffffffffffffff1602179055503480156200005157600080fd5b50620000986040518060400160405280600c81526020017f4172756e20537572617761740000000000000000000000000000000000000000815250620000e460201b60201c565b620000de6040518060400160405280600d81526020017f53686f6169622068757361696e00000000000000000000000000000000000000815250620000e460201b60201c565b6200044a565b60008054906101000a900473ffffffffffffffffffffffffffffffffffffffff1673ffffffffffffffffffffffffffffffffffffffff163373ffffffffffffffffffffffffffffffffffffffff161462000175576040517f08c379a00000000000000000000000000000000000000000000000000000000081526004016200016c90620002f3565b60405180910390fd5b6001600360008282546200018a919062000326565b92505081905550604051806060016040528060035481526020018281526020016000815250600260006003548152602001908152602001600020600082015181600001556020820151816001019080519060200190620001ec9291906200021c565b50604082015181600201559050506040518060600160405280600354815260200182815260200160008152505050565b8280546200022a906200038d565b90600052602060002090601f0160209004810192826200024e57600085556200029a565b82601f106200026957805160ff19168380011785556200029a565b828001600101855582156200029a579182015b82811115620002995782518255916020019190600101906200027c565b5b509050620002a99190620002ad565b5090565b5b80821115620002c8576000816000905550600101620002ae565b5090565b6000620002db60128362000315565b9150620002e88262000421565b602082019050919050565b600060208201905081810360008301526200030e81620002cc565b9050919050565b600082825260208201905092915050565b6000620003338262000383565b9150620003408362000383565b9250827fffffffffffffffffffffffffffffffffffffffffffffffffffffffffffffffff03821115620003785762000377620003c3565b5b828201905092915050565b6000819050919050565b60006002820490506001821680620003a657607f821691505b60208210811415620003bd57620003bc620003f2565b5b50919050565b7f4e487b7100000000000000000000000000000000000000000000000000000000600052601160045260246000fd5b7f4e487b7100000000000000000000000000000000000000000000000000000000600052602260045260246000fd5b7f4f6e6c79204f776e65722063616e206164640000000000000000000000000000600082015250565b610c9d806200045a6000396000f3fe608060405234801561001057600080fd5b506004361061007d5760003560e01c8063462e91ec1161005b578063462e91ec146100ee5780638da5cb5b1461010a578063a3ec138d14610128578063dfbf53ae146101585761007d565b80630121b93f146100825780632d35a8a21461009e5780633477ee2e146100bc575b600080fd5b61009c60048036038101906100979190610785565b610176565b005b6100a66102a4565b6040516100b391906108f2565b60405180910390f35b6100d660048036038101906100d19190610785565b6102aa565b6040516100e59392919061090d565b60405180910390f35b61010860048036038101906101039190610744565b61035c565b005b61011261048d565b60405161011f919061085a565b60405180910390f35b610142600480360381019061013d919061071b565b6104b1565b60405161014f9190610875565b60405180910390f35b6101606104d1565b60405161016d9190610890565b60405180910390f35b600160003373ffffffffffffffffffffffffffffffffffffffff1673ffffffffffffffffffffffffffffffffffffffff16815260200190815260200160002060009054906101000a900460ff16156101cd57600080fd5b6000811180156101df57506003548111155b6101e857600080fd5b60018060003373ffffffffffffffffffffffffffffffffffffffff1673ffffffffffffffffffffffffffffffffffffffff16815260200190815260200160002060006101000a81548160ff02191690831515021790555060026000828152602001908152602001600020600201600081548092919061026690610b00565b9190505550807f8f0f7d03219948a2b8739cb4611b7300a297fbae05e48e93b4b862dd52211579604051610299906108d2565b60405180910390a250565b60035481565b60026020528060005260406000206000915090508060000154908060010180546102d390610a9d565b80601f01602080910402602001604051908101604052809291908181526020018280546102ff90610a9d565b801561034c5780601f106103215761010080835404028352916020019161034c565b820191906000526020600020905b81548152906001019060200180831161032f57829003601f168201915b5050505050908060020154905083565b60008054906101000a900473ffffffffffffffffffffffffffffffffffffffff1673ffffffffffffffffffffffffffffffffffffffff163373ffffffffffffffffffffffffffffffffffffffff16146103ea576040517f08c379a00000000000000000000000000000000000000000000000000000000081526004016103e1906108b2565b60405180910390fd5b6001600360008282546103fd91906109bd565b9250508190555060405180606001604052806003548152602001828152602001600081525060026000600354815260200190815260200160002060008201518160000155602082015181600101908051906020019061045d9291906105e6565b50604082015181600201559050506040518060600160405280600354815260200182815260200160008152505050565b60008054906101000a900473ffffffffffffffffffffffffffffffffffffffff1681565b60016020528060005260406000206000915054906101000a900460ff1681565b6060600060035481116105e15760056002600083815260200190815260200160002060020154106105a35760026000828152602001908152602001600020600101805461051d90610a9d565b80601f016020809104026020016040519081016040528092919081815260200182805461054990610a9d565b80156105965780601f1061056b57610100808354040283529160200191610596565b820191906000526020600020905b81548152906001019060200180831161057957829003601f168201915b50505050509150506105e3565b6040518060400160405280600d81526020017f4e6f74206465636c6172656421000000000000000000000000000000000000008152509150506105e3565b505b90565b8280546105f290610a9d565b90600052602060002090601f016020900481019282610614576000855561065b565b82601f1061062d57805160ff191683800117855561065b565b8280016001018555821561065b579182015b8281111561065a57825182559160200191906001019061063f565b5b509050610668919061066c565b5090565b5b8082111561068557600081600090555060010161066d565b5090565b600061069c61069784610970565b61094b565b9050828152602081018484840111156106b457600080fd5b6106bf848285610a5b565b509392505050565b6000813590506106d681610c39565b92915050565b600082601f8301126106ed57600080fd5b81356106fd848260208601610689565b91505092915050565b60008135905061071581610c50565b92915050565b60006020828403121561072d57600080fd5b600061073b848285016106c7565b91505092915050565b60006020828403121561075657600080fd5b600082013567ffffffffffffffff81111561077057600080fd5b61077c848285016106dc565b91505092915050565b60006020828403121561079757600080fd5b60006107a584828501610706565b91505092915050565b6107b781610a13565b82525050565b6107c681610a25565b82525050565b60006107d7826109a1565b6107e181856109ac565b93506107f1818560208601610a6a565b6107fa81610bd6565b840191505092915050565b60006108126012836109ac565b915061081d82610be7565b602082019050919050565b6000610835600f836109ac565b915061084082610c10565b602082019050919050565b61085481610a51565b82525050565b600060208201905061086f60008301846107ae565b92915050565b600060208201905061088a60008301846107bd565b92915050565b600060208201905081810360008301526108aa81846107cc565b905092915050565b600060208201905081810360008301526108cb81610805565b9050919050565b600060208201905081810360008301526108eb81610828565b9050919050565b6000602082019050610907600083018461084b565b92915050565b6000606082019050610922600083018661084b565b818103602083015261093481856107cc565b9050610943604083018461084b565b949350505050565b6000610955610966565b90506109618282610acf565b919050565b6000604051905090565b600067ffffffffffffffff82111561098b5761098a610ba7565b5b61099482610bd6565b9050602081019050919050565b600081519050919050565b600082825260208201905092915050565b60006109c882610a51565b91506109d383610a51565b9250827fffffffffffffffffffffffffffffffffffffffffffffffffffffffffffffffff03821115610a0857610a07610b49565b5b828201905092915050565b6000610a1e82610a31565b9050919050565b60008115159050919050565b600073ffffffffffffffffffffffffffffffffffffffff82169050919050565b6000819050919050565b82818337600083830152505050565b60005b83811015610a88578082015181840152602081019050610a6d565b83811115610a97576000848401525b50505050565b60006002820490506001821680610ab557607f821691505b60208210811415610ac957610ac8610b78565b5b50919050565b610ad882610bd6565b810181811067ffffffffffffffff82111715610af757610af6610ba7565b5b80604052505050565b6000610b0b82610a51565b91507fffffffffffffffffffffffffffffffffffffffffffffffffffffffffffffffff821415610b3e57610b3d610b49565b5b600182019050919050565b7f4e487b7100000000000000000000000000000000000000000000000000000000600052601160045260246000fd5b7f4e487b7100000000000000000000000000000000000000000000000000000000600052602260045260246000fd5b7f4e487b7100000000000000000000000000000000000000000000000000000000600052604160045260246000fd5b6000601f19601f8301169050919050565b7f4f6e6c79204f776e65722063616e206164640000000000000000000000000000600082015250565b7f766f746564207269676874206e6f770000000000000000000000000000000000600082015250565b610c4281610a13565b8114610c4d57600080fd5b50565b610c5981610a51565b8114610c6457600080fd5b5056fea2646970667358221220bcca8f70c480c6f39f863d8217059289fbd4cd0c56395bdb5b349863ff59acb864736f6c63430008040033",
  "immutableReferences": {},
  "source": "// SPDX-License-Identifier: MIT\npragma solidity >=0.7.0 <=0.8.17;\n\n\ncontract Election {\n     address public owner = msg.sender;\n     // Model a Candidate\n     struct Candidate {\n          uint id;\n          string name;\n          uint voteCount;\n     }\n     \n\n\n     mapping (address => bool) public voters;\n     mapping(uint => Candidate) public candidates;\n     uint public candidatesCount;\n\n\n\n     event votedEvent (string mine, uint indexed _candidateId);\n\n\n     constructor () {\n          addCandidate(\"Arun Surawat\");\n          addCandidate(\"Shoaib husain\");\n     }\n\n     function addCandidate (string memory _name) public{\n          require(msg.sender == owner,\"Only Owner can add\");\n          candidatesCount+=1;\n          candidates[candidatesCount] = Candidate(candidatesCount, _name,0);\n          Candidate(candidatesCount, _name, 0);\n     }\n\n     function vote(uint _candidateId) public{\n          // require that they haven't voted before\n          require(!voters[msg.sender]);\n          // require a valid candidate\n          require(_candidateId > 0 && _candidateId <= candidatesCount);\n          // record that voter has voted\n          voters[msg.sender] = true;\n          // update candidate vote Count\n          candidates[_candidateId].voteCount ++;\n          // trigger voted event\n          emit votedEvent(\"voted right now\", _candidateId);\n     }\n\n     function winner () public view returns(string memory winnerNameString) {\n          for(uint i =0; i <= candidatesCount; i++ ){\n             if(candidates[i].voteCount >= 5){\n               // return string.concat(\"this person is the winner \", candidates[i].name);\n               return candidates[i].name;\n           }else{\n                return 'Not declared!';\n           }\n        }\n     }\n\n\n}",
  "sourcePath": "/home/shikhakhandelwal/Downloads/My_Election_Ethereum/contracts/Election.sol",
  "compiler": {
    "name": "solc",
    "version": "0.8.4+commit.c7e474f2.Emscripten.clang"
  },
  "schemaVersion": "3.4.10",
  "updatedAt": "2022-09-27T14:21:40.799Z",
  "devdoc": {
    "kind": "dev",
    "methods": {},
    "version": 1
  },
  "userdoc": {
    "kind": "user",
    "methods": {},
    "version": 1
  }
}